{"abi":[{"type":"constructor","inputs":[],"stateMutability":"nonpayable"},{"name":"administrador","type":"function","inputs":[],"outputs":[{"name":"","type":"address","internalType":"address"}],"constant":true,"stateMutability":"view"},{"name":"datosPersona","type":"function","inputs":[{"name":"","type":"address","internalType":"address"}],"outputs":[{"name":"dir","type":"address","internalType":"address"}],"constant":true,"stateMutability":"view"},{"name":"registrados","type":"function","inputs":[{"name":"","type":"uint256","internalType":"uint256"}],"outputs":[{"name":"","type":"address","internalType":"address"}],"constant":true,"stateMutability":"view"},{"type":"receive","payable":true,"stateMutability":"payable"},{"name":"registradosLength","type":"function","inputs":[],"outputs":[{"name":"","type":"uint256","internalType":"uint256"}],"constant":true,"stateMutability":"view"},{"name":"autoregistro","type":"function","inputs":[],"outputs":[],"stateMutability":"nonpayable"},{"name":"resetearCuenta","type":"function","inputs":[],"outputs":[],"stateMutability":"nonpayable"},{"name":"elegirPantalla","type":"function","inputs":[],"outputs":[{"name":"","type":"bool","internalType":"bool"}],"constant":true,"stateMutability":"view"},{"name":"estaRegistrado","type":"function","inputs":[{"name":"persona","type":"address","internalType":"address"}],"outputs":[{"name":"","type":"bool","internalType":"bool"}],"constant":true,"stateMutability":"view"},{"name":"obtenerDatosPersona","type":"function","inputs":[{"name":"persona","type":"address","internalType":"address"}],"outputs":[{"name":"","type":"address","internalType":"address"}],"constant":true,"stateMutability":"view"}],"devdoc":{"kind":"dev","methods":{"elegirPantalla()":{"returns":{"_0":"true si la persona registrada."}},"registradosLength()":{"returns":{"_0":"El numero de personas registradas."}},"estaRegistrado(address)":{"params":{"persona":"La direccion de uan persona. "},"returns":{"_0":"true si es una persona registrada."}},"obtenerDatosPersona(address)":{"params":{"persona":"La direccion de una persona. "},"returns":{"_0":"los datos de una persona registrada."}}},"version":1},"source":"// SPDX-License-Identifier: UNLICENSED\npragma solidity ^0.7.4;\npragma experimental ABIEncoderV2;\n\n/**\n *  El contrato Datos contiene los datos de todas las personas registradas en la app.\n * \n */\ncontract Datos {\n    \n    /**\n     * address del administrador que ha desplegado el contrato.\n     * El contrato lo despliega el admin.\n     */\n    address public administrador;\n    \n\n    /// Datos de una persona.\n    struct DatosPersona {\n\taddress dir;\n    }\n    \n    /// Acceder a los datos de una persona dada su direccion.\n    mapping (address => DatosPersona) public datosPersona;\n    \n    // Array con las direcciones de las personas registradas.\n    address[] public registrados;\n\n\n    /**\n     * Constructor.\n     * \n     */\n    constructor() {\n      \n        administrador = msg.sender;\n\tregistrados.push(msg.sender);\n    }\n    \n    \n    /**\n     * El numero de personas registradas.\n     *\n     * @return El numero de personas registradas.\n     */\n    function registradosLength() public view returns(uint) {\n        return registrados.length;\n    }\n    \n    \n    /**\n     * Una persona puede registrarse con el metodo autoregistro.\n     * \n     * Impedir que se puedan meter parametros vacios.\n     *\n     */\n    function autoregistro() noRegistrados public {\n        \n        require(msg.sender!=address(0), \"El address no puede estar vacio\");\n        \n        datosPersona[msg.sender] = DatosPersona(msg.sender);\n        \n        registrados.push(msg.sender);\n        \n    }\n     \n    \n    /**\n     * Una persona puede resetear su cuenta con el metodo resetearCuenta.\n     * \n     *\n     */\n    function resetearCuenta() Registrados public {\n        \n        uint i = 0;\n\n\tdelete datosPersona[msg.sender];        \n\n\twhile((i < registrados.length) && (registrados[i] != msg.sender)){\n\n\ti++;\n\t}\n\n\tfor(uint x = i; x < registrados.length - 1 ; x++){\n\tregistrados[x] = registrados[x+1];\t\n\t}\n\n\t\n\tregistrados.pop();\n\ti = 0;\n       \n    }\n\n\n    /**\n     * Consulta si una persona esta registrada para elegir que pantalla inicial se le muestra.\n     * \n     * \n     * @return true si la persona registrada.\n     */\n    function elegirPantalla() public view returns (bool) {\n\n\treturn estaRegistrado(msg.sender);\n\n    } \n\n\n\n    /**\n     * Consulta si una direccion pertenece a una persona registrada.\n     * \n     * @param persona La direccion de uan persona.\n     * \n     * @return true si es una persona registrada.\n     */\n    function estaRegistrado(address persona) public view returns (bool) {\n\n\taddress _dir = datosPersona[persona].dir;\n        return _dir!=address(0);\n    } \n\n\n\n    /**\n     * Obtiene los datos de una persona registrada.\n     * \n     * @param persona La direccion de una persona.\n     * \n     * @return los datos de una persona registrada.\n     */\n    function obtenerDatosPersona(address persona) soloAdmin public view returns(address) {\n\t\n\t\n\tif(!estaRegistrado(persona)){\n\treturn address(0);\n\t} else{\t\n\treturn datosPersona[persona].dir;\n\t}\n\t\n        \n        \n    } \n\n\n/**\n     * Funcion auxiliar por si en algun momento es neceario pasar de tipo address a string.\n     * \n     */\n    function addressToString(address _addr) private pure returns(string memory) {\n        bytes32 value = bytes32(uint256(_addr));\n        bytes memory alphabet = \"0123456789abcdef\";\n\n        bytes memory str = new bytes(51);\n        str[0] = '0';\n        str[1] = 'x';\n        for (uint256 i = 0; i < 20; i++) {\n            str[2+i*2] = alphabet[uint8(value[i + 12] >> 4)];\n            str[3+i*2] = alphabet[uint8(value[i + 12] & 0x0f)];\n        }\n        return string(str);\n    }\n\n   \n\n    /**\n     * Modificador para que una funcion solo la pueda ejecutar el administrador.\n     * \n     * Se usa en obtenerDatosPersona\n     */\n    modifier soloAdmin() {\n        \n        require(msg.sender == administrador, \"Solo permitido al administrador\");\n        _;\n    }\n\n\n    /**\n     * Modificador para que una funcion solo la pueda ejecutar una persona no registrada.\n     */\n    modifier noRegistrados() {\n        \n        require(!estaRegistrado(msg.sender), \"Solo permitido a personas no registradas\");\n        _;\n    }    \n\n\n    /**\n     * Modificador para que una funcion solo la pueda ejecutar una persona registrada.\n     */\n    modifier Registrados() {\n        \n        require(estaRegistrado(msg.sender), \"Solo permitido a personas registradas\");\n        _;\n    }  \n    \n\t\n    /**\n     * No se permite la recepcion de dinero.\n     */\n    receive() external payable {\n        revert(\"No se permite la recepcion de dinero.\");\n    }\n}\n","userdoc":{"kind":"user","notice":"El contrato Datos contiene los datos de todas las personas registradas en la app. ","methods":{"autoregistro()":{"notice":"Una persona puede registrarse con el metodo autoregistro.  Impedir que se puedan meter parametros vacios."},"administrador()":{"notice":"address del administrador que ha desplegado el contrato. El contrato lo despliega el admin."},"elegirPantalla()":{"notice":"Consulta si una persona esta registrada para elegir que pantalla inicial se le muestra.  "},"resetearCuenta()":{"notice":"Una persona puede resetear su cuenta con el metodo resetearCuenta. "},"registradosLength()":{"notice":"El numero de personas registradas."},"datosPersona(address)":{"notice":"Acceder a los datos de una persona dada su direccion."},"estaRegistrado(address)":{"notice":"Consulta si una direccion pertenece a una persona registrada. "},"obtenerDatosPersona(address)":{"notice":"Obtiene los datos de una persona registrada. "}},"version":1},"bytecode":"0x608060405234801561001057600080fd5b50336000806101000a81548173ffffffffffffffffffffffffffffffffffffffff021916908373ffffffffffffffffffffffffffffffffffffffff1602179055506002339080600181540180825580915050600190039060005260206000200160009091909190916101000a81548173ffffffffffffffffffffffffffffffffffffffff021916908373ffffffffffffffffffffffffffffffffffffffff160217905550610cf0806100c36000396000f3fe60806040526004361061008a5760003560e01c806366b4d1861161005957806366b4d1861461018b5780637062b97d146101c8578063a1b8cb1c146101f3578063ec4923c814610230578063ef7b12d81461025b576100ca565b806307025942146100cf5780630c3126611461010c578063447fba14146101495780635d0e133a14610160576100ca565b366100ca576040517f08c379a00000000000000000000000000000000000000000000000000000000081526004016100c190610bf8565b60405180910390fd5b600080fd5b3480156100db57600080fd5b506100f660048036038101906100f19190610911565b610272565b6040516101039190610b42565b60405180910390f35b34801561011857600080fd5b50610133600480360381019061012e9190610911565b6102b0565b6040516101409190610b42565b60405180910390f35b34801561015557600080fd5b5061015e6103c2565b005b34801561016c57600080fd5b506101756105fa565b6040516101829190610c18565b60405180910390f35b34801561019757600080fd5b506101b260048036038101906101ad919061093a565b610607565b6040516101bf9190610b42565b60405180910390f35b3480156101d457600080fd5b506101dd610646565b6040516101ea9190610b42565b60405180910390f35b3480156101ff57600080fd5b5061021a60048036038101906102159190610911565b61066a565b6040516102279190610b5d565b60405180910390f35b34801561023c57600080fd5b5061024561070b565b6040516102529190610b5d565b60405180910390f35b34801561026757600080fd5b5061027061071b565b005b60016020528060005260406000206000915090508060000160009054906101000a900473ffffffffffffffffffffffffffffffffffffffff16905081565b60008060009054906101000a900473ffffffffffffffffffffffffffffffffffffffff1673ffffffffffffffffffffffffffffffffffffffff163373ffffffffffffffffffffffffffffffffffffffff1614610341576040517f08c379a000000000000000000000000000000000000000000000000000000000815260040161033890610bd8565b60405180910390fd5b61034a8261066a565b61035757600090506103bd565b600160008373ffffffffffffffffffffffffffffffffffffffff1673ffffffffffffffffffffffffffffffffffffffff16815260200190815260200160002060000160009054906101000a900473ffffffffffffffffffffffffffffffffffffffff1690505b919050565b6103cb3361066a565b61040a576040517f08c379a000000000000000000000000000000000000000000000000000000000815260040161040190610bb8565b60405180910390fd5b6000600160003373ffffffffffffffffffffffffffffffffffffffff1673ffffffffffffffffffffffffffffffffffffffff168152602001908152602001600020600080820160006101000a81549073ffffffffffffffffffffffffffffffffffffffff021916905550505b600280549050811080156104ed57503373ffffffffffffffffffffffffffffffffffffffff16600282815481106104a957fe5b9060005260206000200160009054906101000a900473ffffffffffffffffffffffffffffffffffffffff1673ffffffffffffffffffffffffffffffffffffffff1614155b156104ff578080600101915050610476565b60008190505b6001600280549050038110156105b2576002600182018154811061052557fe5b9060005260206000200160009054906101000a900473ffffffffffffffffffffffffffffffffffffffff166002828154811061055d57fe5b9060005260206000200160006101000a81548173ffffffffffffffffffffffffffffffffffffffff021916908373ffffffffffffffffffffffffffffffffffffffff1602179055508080600101915050610505565b5060028054806105be57fe5b6001900381819060005260206000200160006101000a81549073ffffffffffffffffffffffffffffffffffffffff021916905590556000905050565b6000600280549050905090565b6002818154811061061757600080fd5b906000526020600020016000915054906101000a900473ffffffffffffffffffffffffffffffffffffffff1681565b60008054906101000a900473ffffffffffffffffffffffffffffffffffffffff1681565b600080600160008473ffffffffffffffffffffffffffffffffffffffff1673ffffffffffffffffffffffffffffffffffffffff16815260200190815260200160002060000160009054906101000a900473ffffffffffffffffffffffffffffffffffffffff169050600073ffffffffffffffffffffffffffffffffffffffff168173ffffffffffffffffffffffffffffffffffffffff161415915050919050565b60006107163361066a565b905090565b6107243361066a565b15610764576040517f08c379a000000000000000000000000000000000000000000000000000000000815260040161075b90610b78565b60405180910390fd5b600073ffffffffffffffffffffffffffffffffffffffff163373ffffffffffffffffffffffffffffffffffffffff1614156107d4576040517f08c379a00000000000000000000000000000000000000000000000000000000081526004016107cb90610b98565b60405180910390fd5b60405180602001604052803373ffffffffffffffffffffffffffffffffffffffff16815250600160003373ffffffffffffffffffffffffffffffffffffffff1673ffffffffffffffffffffffffffffffffffffffff16815260200190815260200160002060008201518160000160006101000a81548173ffffffffffffffffffffffffffffffffffffffff021916908373ffffffffffffffffffffffffffffffffffffffff1602179055509050506002339080600181540180825580915050600190039060005260206000200160009091909190916101000a81548173ffffffffffffffffffffffffffffffffffffffff021916908373ffffffffffffffffffffffffffffffffffffffff160217905550565b6000813590506108f681610c8c565b92915050565b60008135905061090b81610ca3565b92915050565b60006020828403121561092357600080fd5b6000610931848285016108e7565b91505092915050565b60006020828403121561094c57600080fd5b600061095a848285016108fc565b91505092915050565b61096c81610c44565b82525050565b61097b81610c56565b82525050565b600061098e602883610c33565b91507f536f6c6f207065726d697469646f206120706572736f6e6173206e6f2072656760008301527f69737472616461730000000000000000000000000000000000000000000000006020830152604082019050919050565b60006109f4601f83610c33565b91507f456c2061646472657373206e6f20707565646520657374617220766163696f006000830152602082019050919050565b6000610a34602583610c33565b91507f536f6c6f207065726d697469646f206120706572736f6e61732072656769737460008301527f72616461730000000000000000000000000000000000000000000000000000006020830152604082019050919050565b6000610a9a601f83610c33565b91507f536f6c6f207065726d697469646f20616c2061646d696e6973747261646f72006000830152602082019050919050565b6000610ada602583610c33565b91507f4e6f207365207065726d697465206c6120726563657063696f6e20646520646960008301527f6e65726f2e0000000000000000000000000000000000000000000000000000006020830152604082019050919050565b610b3c81610c82565b82525050565b6000602082019050610b576000830184610963565b92915050565b6000602082019050610b726000830184610972565b92915050565b60006020820190508181036000830152610b9181610981565b9050919050565b60006020820190508181036000830152610bb1816109e7565b9050919050565b60006020820190508181036000830152610bd181610a27565b9050919050565b60006020820190508181036000830152610bf181610a8d565b9050919050565b60006020820190508181036000830152610c1181610acd565b9050919050565b6000602082019050610c2d6000830184610b33565b92915050565b600082825260208201905092915050565b6000610c4f82610c62565b9050919050565b60008115159050919050565b600073ffffffffffffffffffffffffffffffffffffffff82169050919050565b6000819050919050565b610c9581610c44565b8114610ca057600080fd5b50565b610cac81610c82565b8114610cb757600080fd5b5056fea2646970667358221220250d6a8c00f81ae2be6d5fd36cffa68f670f62598108a23891a040a93f9ab2d064736f6c63430007040033","compiler":{"name":"solc","version":"0.7.4+commit.3f05b770.Emscripten.clang"},"updatedAt":"2021-06-12T23:10:59.575Z","sourcePath":"/home/builduser/teams_workingdir/repo/contracts/Datos.sol","networkType":"ethereum","contractName":"Datos","schemaVersion":"3.4.1","immutableReferences":{}}