{
  "contractName": "Escuela",
  "abi": [
    {
      "inputs": [
        {
          "internalType": "string",
          "name": "_nombre",
          "type": "string"
        }
      ],
      "stateMutability": "nonpayable",
      "type": "constructor"
    },
    {
      "inputs": [],
      "name": "administrador",
      "outputs": [
        {
          "internalType": "address",
          "name": "",
          "type": "address"
        }
      ],
      "stateMutability": "view",
      "type": "function"
    },
    {
      "inputs": [
        {
          "internalType": "uint256",
          "name": "",
          "type": "uint256"
        }
      ],
      "name": "alertasEscuela",
      "outputs": [
        {
          "internalType": "string",
          "name": "aula",
          "type": "string"
        },
        {
          "internalType": "uint256",
          "name": "turno",
          "type": "uint256"
        },
        {
          "internalType": "string",
          "name": "fecha",
          "type": "string"
        }
      ],
      "stateMutability": "view",
      "type": "function"
    },
    {
      "inputs": [
        {
          "internalType": "address",
          "name": "",
          "type": "address"
        }
      ],
      "name": "alertasUsuario",
      "outputs": [
        {
          "internalType": "string",
          "name": "aula",
          "type": "string"
        },
        {
          "internalType": "string",
          "name": "fecha",
          "type": "string"
        },
        {
          "internalType": "uint256",
          "name": "estado",
          "type": "uint256"
        }
      ],
      "stateMutability": "view",
      "type": "function"
    },
    {
      "inputs": [
        {
          "internalType": "uint256",
          "name": "",
          "type": "uint256"
        }
      ],
      "name": "aulas",
      "outputs": [
        {
          "internalType": "uint256",
          "name": "indice",
          "type": "uint256"
        },
        {
          "internalType": "string",
          "name": "nombre",
          "type": "string"
        }
      ],
      "stateMutability": "view",
      "type": "function"
    },
    {
      "inputs": [
        {
          "internalType": "string",
          "name": "",
          "type": "string"
        },
        {
          "internalType": "string",
          "name": "",
          "type": "string"
        },
        {
          "internalType": "uint256",
          "name": "",
          "type": "uint256"
        },
        {
          "internalType": "address",
          "name": "",
          "type": "address"
        }
      ],
      "name": "datosAula",
      "outputs": [
        {
          "internalType": "address",
          "name": "dir",
          "type": "address"
        },
        {
          "internalType": "string",
          "name": "fecha",
          "type": "string"
        },
        {
          "internalType": "string",
          "name": "ent",
          "type": "string"
        },
        {
          "internalType": "string",
          "name": "sal",
          "type": "string"
        },
        {
          "internalType": "string",
          "name": "puesto",
          "type": "string"
        },
        {
          "internalType": "string",
          "name": "estado",
          "type": "string"
        },
        {
          "internalType": "string",
          "name": "info",
          "type": "string"
        }
      ],
      "stateMutability": "view",
      "type": "function"
    },
    {
      "inputs": [],
      "name": "escuela",
      "outputs": [
        {
          "internalType": "string",
          "name": "",
          "type": "string"
        }
      ],
      "stateMutability": "view",
      "type": "function"
    },
    {
      "inputs": [
        {
          "internalType": "string",
          "name": "",
          "type": "string"
        },
        {
          "internalType": "string",
          "name": "",
          "type": "string"
        },
        {
          "internalType": "uint256",
          "name": "",
          "type": "uint256"
        },
        {
          "internalType": "uint256",
          "name": "",
          "type": "uint256"
        }
      ],
      "name": "personas",
      "outputs": [
        {
          "internalType": "address",
          "name": "",
          "type": "address"
        }
      ],
      "stateMutability": "view",
      "type": "function"
    },
    {
      "inputs": [
        {
          "internalType": "string",
          "name": "",
          "type": "string"
        },
        {
          "internalType": "string",
          "name": "",
          "type": "string"
        },
        {
          "internalType": "uint256",
          "name": "",
          "type": "uint256"
        }
      ],
      "name": "personasTotales",
      "outputs": [
        {
          "internalType": "address",
          "name": "",
          "type": "address"
        }
      ],
      "stateMutability": "view",
      "type": "function"
    },
    {
      "inputs": [
        {
          "internalType": "string",
          "name": "",
          "type": "string"
        },
        {
          "internalType": "string",
          "name": "",
          "type": "string"
        },
        {
          "internalType": "uint256",
          "name": "",
          "type": "uint256"
        }
      ],
      "name": "turnos",
      "outputs": [
        {
          "internalType": "uint256",
          "name": "",
          "type": "uint256"
        }
      ],
      "stateMutability": "view",
      "type": "function"
    },
    {
      "inputs": [
        {
          "internalType": "string",
          "name": "",
          "type": "string"
        },
        {
          "internalType": "string",
          "name": "",
          "type": "string"
        },
        {
          "internalType": "uint256",
          "name": "",
          "type": "uint256"
        }
      ],
      "name": "turnos_existentes",
      "outputs": [
        {
          "internalType": "bool",
          "name": "",
          "type": "bool"
        }
      ],
      "stateMutability": "view",
      "type": "function"
    },
    {
      "inputs": [
        {
          "internalType": "address",
          "name": "",
          "type": "address"
        },
        {
          "internalType": "uint256",
          "name": "",
          "type": "uint256"
        }
      ],
      "name": "ultimosRegistros",
      "outputs": [
        {
          "internalType": "string",
          "name": "aula",
          "type": "string"
        },
        {
          "internalType": "uint256",
          "name": "turno",
          "type": "uint256"
        },
        {
          "internalType": "string",
          "name": "fecha",
          "type": "string"
        }
      ],
      "stateMutability": "view",
      "type": "function"
    },
    {
      "stateMutability": "payable",
      "type": "receive"
    },
    {
      "inputs": [],
      "name": "aulasLength",
      "outputs": [
        {
          "internalType": "uint256",
          "name": "",
          "type": "uint256"
        }
      ],
      "stateMutability": "view",
      "type": "function"
    },
    {
      "inputs": [],
      "name": "alertasLength",
      "outputs": [
        {
          "internalType": "uint256",
          "name": "",
          "type": "uint256"
        }
      ],
      "stateMutability": "view",
      "type": "function"
    },
    {
      "inputs": [
        {
          "internalType": "address",
          "name": "dir",
          "type": "address"
        }
      ],
      "name": "ultimosRegistrosLength",
      "outputs": [
        {
          "internalType": "uint256",
          "name": "",
          "type": "uint256"
        }
      ],
      "stateMutability": "view",
      "type": "function"
    },
    {
      "inputs": [
        {
          "internalType": "string",
          "name": "_nombre",
          "type": "string"
        },
        {
          "internalType": "string",
          "name": "_fecha",
          "type": "string"
        }
      ],
      "name": "personasLength",
      "outputs": [
        {
          "internalType": "uint256",
          "name": "",
          "type": "uint256"
        }
      ],
      "stateMutability": "view",
      "type": "function"
    },
    {
      "inputs": [
        {
          "internalType": "string",
          "name": "_nombre",
          "type": "string"
        },
        {
          "internalType": "string",
          "name": "_fecha",
          "type": "string"
        },
        {
          "internalType": "uint256",
          "name": "_indice",
          "type": "uint256"
        }
      ],
      "name": "dirPersonas",
      "outputs": [
        {
          "internalType": "address",
          "name": "",
          "type": "address"
        }
      ],
      "stateMutability": "view",
      "type": "function"
    },
    {
      "inputs": [
        {
          "internalType": "address",
          "name": "_dir",
          "type": "address"
        }
      ],
      "name": "alertas",
      "outputs": [
        {
          "components": [
            {
              "internalType": "string",
              "name": "aula",
              "type": "string"
            },
            {
              "internalType": "string",
              "name": "fecha",
              "type": "string"
            },
            {
              "internalType": "uint256",
              "name": "estado",
              "type": "uint256"
            }
          ],
          "internalType": "struct Escuela.AlertaUsuario",
          "name": "",
          "type": "tuple"
        }
      ],
      "stateMutability": "view",
      "type": "function"
    },
    {
      "inputs": [],
      "name": "reiniciarAlerta",
      "outputs": [],
      "stateMutability": "nonpayable",
      "type": "function"
    },
    {
      "inputs": [
        {
          "internalType": "uint256",
          "name": "x",
          "type": "uint256"
        }
      ],
      "name": "aulaPulsada",
      "outputs": [
        {
          "internalType": "string",
          "name": "",
          "type": "string"
        }
      ],
      "stateMutability": "view",
      "type": "function"
    },
    {
      "inputs": [
        {
          "internalType": "string",
          "name": "_nombre",
          "type": "string"
        }
      ],
      "name": "crearAula",
      "outputs": [
        {
          "internalType": "uint256",
          "name": "",
          "type": "uint256"
        }
      ],
      "stateMutability": "nonpayable",
      "type": "function"
    },
    {
      "inputs": [
        {
          "internalType": "string",
          "name": "_nombre",
          "type": "string"
        },
        {
          "internalType": "string",
          "name": "_ent",
          "type": "string"
        },
        {
          "internalType": "string",
          "name": "_fecha",
          "type": "string"
        },
        {
          "internalType": "string",
          "name": "_puesto",
          "type": "string"
        },
        {
          "internalType": "uint256",
          "name": "_turno",
          "type": "uint256"
        }
      ],
      "name": "guardarEntrada",
      "outputs": [],
      "stateMutability": "nonpayable",
      "type": "function"
    },
    {
      "inputs": [
        {
          "internalType": "string",
          "name": "_nombre",
          "type": "string"
        },
        {
          "internalType": "string",
          "name": "_sal",
          "type": "string"
        },
        {
          "internalType": "string",
          "name": "_fecha",
          "type": "string"
        },
        {
          "internalType": "uint256",
          "name": "_turno",
          "type": "uint256"
        }
      ],
      "name": "guardarSalida",
      "outputs": [],
      "stateMutability": "nonpayable",
      "type": "function"
    },
    {
      "inputs": [
        {
          "internalType": "uint256",
          "name": "_indice",
          "type": "uint256"
        }
      ],
      "name": "eliminarAula",
      "outputs": [],
      "stateMutability": "nonpayable",
      "type": "function"
    },
    {
      "inputs": [
        {
          "internalType": "string",
          "name": "_nombre",
          "type": "string"
        },
        {
          "internalType": "string",
          "name": "_fecha",
          "type": "string"
        }
      ],
      "name": "guardarEntradasAula",
      "outputs": [
        {
          "components": [
            {
              "internalType": "address",
              "name": "dir",
              "type": "address"
            },
            {
              "internalType": "string",
              "name": "fecha",
              "type": "string"
            },
            {
              "internalType": "string",
              "name": "ent",
              "type": "string"
            },
            {
              "internalType": "string",
              "name": "sal",
              "type": "string"
            },
            {
              "internalType": "string",
              "name": "puesto",
              "type": "string"
            },
            {
              "internalType": "string",
              "name": "estado",
              "type": "string"
            },
            {
              "internalType": "string",
              "name": "info",
              "type": "string"
            }
          ],
          "internalType": "struct Escuela.Entrada[]",
          "name": "",
          "type": "tuple[]"
        }
      ],
      "stateMutability": "view",
      "type": "function"
    },
    {
      "inputs": [
        {
          "internalType": "string",
          "name": "fechaNeg",
          "type": "string"
        }
      ],
      "name": "estadoNegativo",
      "outputs": [],
      "stateMutability": "nonpayable",
      "type": "function"
    },
    {
      "inputs": [
        {
          "internalType": "string",
          "name": "fechaPos",
          "type": "string"
        }
      ],
      "name": "estadoPositivo",
      "outputs": [],
      "stateMutability": "nonpayable",
      "type": "function"
    }
  ],
  "bytecode": "0x60806040523480156200001157600080fd5b50604051620061ac380380620061ac8339818101604052810190620000379190620001a9565b336000806101000a81548173ffffffffffffffffffffffffffffffffffffffff021916908373ffffffffffffffffffffffffffffffffffffffff16021790555080600190805190602001906200008f92919062000097565b50506200028d565b828054600181600116156101000203166002900490600052602060002090601f016020900481019282620000cf57600085556200011b565b82601f10620000ea57805160ff19168380011785556200011b565b828001600101855582156200011b579182015b828111156200011a578251825591602001919060010190620000fd565b5b5090506200012a91906200012e565b5090565b5b80821115620001495760008160009055506001016200012f565b5090565b600082601f8301126200015f57600080fd5b815162000176620001708262000222565b620001ee565b915080825260208301602083018583830111156200019357600080fd5b620001a083828462000255565b50505092915050565b600060208284031215620001bc57600080fd5b600082015167ffffffffffffffff811115620001d757600080fd5b620001e5848285016200014d565b91505092915050565b6000604051905081810181811067ffffffffffffffff821117156200021857620002176200028b565b5b8060405250919050565b600067ffffffffffffffff82111562000240576200023f6200028b565b5b601f19601f8301169050602081019050919050565b60005b838110156200027557808201518184015260208101905062000258565b8381111562000285576000848401525b50505050565bfe5b615f0f806200029d6000396000f3fe6080604052600436106101855760003560e01c8063c29d7b6d116100d1578063d5a3e75a1161008a578063e53b779d11610064578063e53b779d14610665578063e8933c6e1461068e578063f18d73c2146106b7578063f8747859146106fa576101c5565b8063d5a3e75a146105d4578063d64545d814610611578063e25c09aa1461064e576101c5565b8063c29d7b6d14610476578063c41386b2146104b5578063c5202345146104f2578063ca66cf2a1461051b578063caeadf8b14610558578063d23e43da14610597576101c5565b80638f4739361161013e5780639845d34a116101185780639845d34a146103ba578063a724952f146103e5578063bbd2273b14610422578063c2334e261461044d576101c5565b80638f473936146103015780639376d0ae14610340578063952824041461037d576101c5565b806309890ce0146101ca5780632b92489c146101f557806341e49ae81461021e5780635fdf483f1461025c57806366668f3c146102995780637062b97d146102d6576101c5565b366101c5576040517f08c379a00000000000000000000000000000000000000000000000000000000081526004016101bc90615c8f565b60405180910390fd5b600080fd5b3480156101d657600080fd5b506101df610737565b6040516101ec9190615cf1565b60405180910390f35b34801561020157600080fd5b5061021c6004803603810190610217919061511d565b610744565b005b34801561022a57600080fd5b50610245600480360381019061024091906154f1565b6114b1565b604051610253929190615d0c565b60405180910390f35b34801561026857600080fd5b50610283600480360381019061027e919061534c565b61157d565b6040516102909190615a52565b60405180910390f35b3480156102a557600080fd5b506102c060048036038101906102bb919061515e565b611604565b6040516102cd9190615cf1565b60405180910390f35b3480156102e257600080fd5b506102eb61165f565b6040516102f89190615a52565b60405180910390f35b34801561030d57600080fd5b50610328600480360381019061032391906150e1565b611683565b60405161033793929190615baa565b60405180910390f35b34801561034c57600080fd5b506103676004803603810190610362919061534c565b6117fa565b6040516103749190615b28565b60405180910390f35b34801561038957600080fd5b506103a4600480360381019061039f91906154f1565b611862565b6040516103b19190615b43565b60405180910390f35b3480156103c657600080fd5b506103cf611922565b6040516103dc9190615b43565b60405180910390f35b3480156103f157600080fd5b5061040c6004803603810190610407919061534c565b6119c0565b6040516104199190615cf1565b60405180910390f35b34801561042e57600080fd5b50610437611a2a565b6040516104449190615cf1565b60405180910390f35b34801561045957600080fd5b50610474600480360381019061046f919061511d565b611a37565b005b34801561048257600080fd5b5061049d600480360381019061049891906150b8565b61253d565b6040516104ac93929190615b65565b60405180910390f35b3480156104c157600080fd5b506104dc60048036038101906104d7919061515e565b612697565b6040516104e99190615b06565b60405180910390f35b3480156104fe57600080fd5b50610519600480360381019061051491906154f1565b6136ef565b005b34801561052757600080fd5b50610542600480360381019061053d91906150b8565b61381f565b60405161054f9190615ccf565b60405180910390f35b34801561056457600080fd5b5061057f600480360381019061057a91906154f1565b6139c6565b60405161058e93929190615baa565b60405180910390f35b3480156105a357600080fd5b506105be60048036038101906105b9919061511d565b613b30565b6040516105cb9190615cf1565b60405180910390f35b3480156105e057600080fd5b506105fb60048036038101906105f6919061545e565b613bfb565b6040516106089190615a52565b60405180910390f35b34801561061d57600080fd5b50610638600480360381019061063391906150b8565b613c8f565b6040516106459190615cf1565b60405180910390f35b34801561065a57600080fd5b50610663613cdb565b005b34801561067157600080fd5b5061068c600480360381019061068791906151ca565b613d25565b005b34801561069a57600080fd5b506106b560048036038101906106b091906152a1565b614884565b005b3480156106c357600080fd5b506106de60048036038101906106d991906153cb565b61492a565b6040516106f19796959493929190615a6d565b60405180910390f35b34801561070657600080fd5b50610721600480360381019061071c919061534c565b614d6f565b60405161072e9190615a52565b60405180910390f35b6000600380549050905090565b600080600a60003373ffffffffffffffffffffffffffffffffffffffff1673ffffffffffffffffffffffffffffffffffffffff1681526020019081526020016000208054905011156107d9576001600a60003373ffffffffffffffffffffffffffffffffffffffff1673ffffffffffffffffffffffffffffffffffffffff168152602001908152602001600020805490500390505b6060600a60003373ffffffffffffffffffffffffffffffffffffffff1673ffffffffffffffffffffffffffffffffffffffff168152602001908152602001600020828154811061082557fe5b90600052602060002090600302016000018054600181600116156101000203166002900480601f0160208091040260200160405190810160405280929190818152602001828054600181600116156101000203166002900480156108ca5780601f1061089f576101008083540402835291602001916108ca565b820191906000526020600020905b8154815290600101906020018083116108ad57829003601f168201915b505050505090506060600a60003373ffffffffffffffffffffffffffffffffffffffff1673ffffffffffffffffffffffffffffffffffffffff168152602001908152602001600020838154811061091d57fe5b90600052602060002090600302016002018054600181600116156101000203166002900480601f0160208091040260200160405190810160405280929190818152602001828054600181600116156101000203166002900480156109c25780601f10610997576101008083540402835291602001916109c2565b820191906000526020600020905b8154815290600101906020018083116109a557829003601f168201915b505050505090506000600a60003373ffffffffffffffffffffffffffffffffffffffff1673ffffffffffffffffffffffffffffffffffffffff1681526020019081526020016000208481548110610a1557fe5b906000526020600020906003020160010154905060606040518060400160405280600881526020017f506f73697469766f000000000000000000000000000000000000000000000000815250905060005b600784604051610a769190615a19565b908152602001604051809103902085604051610a929190615a19565b9081526020016040518091039020600084815260200190815260200160002080549050811015611192576060600985604051610ace9190615a19565b908152602001604051809103902086604051610aea9190615a19565b908152602001604051809103902060008581526020019081526020016000206000600787604051610b1b9190615a19565b908152602001604051809103902088604051610b379190615a19565b908152602001604051809103902060008781526020019081526020016000208481548110610b6157fe5b9060005260206000200160009054906101000a900473ffffffffffffffffffffffffffffffffffffffff1673ffffffffffffffffffffffffffffffffffffffff1673ffffffffffffffffffffffffffffffffffffffff1681526020019081526020016000206005018054600181600116156101000203166002900480601f016020809104026020016040519081016040528092919081815260200182805460018160011615610100020316600290048015610c5d5780601f10610c3257610100808354040283529160200191610c5d565b820191906000526020600020905b815481529060010190602001808311610c4057829003601f168201915b505050505090508280519060200120818051906020012014611184576040518060400160405280600a81526020017f536f73706563686f736f00000000000000000000000000000000000000000000815250600986604051610cbf9190615a19565b908152602001604051809103902087604051610cdb9190615a19565b908152602001604051809103902060008681526020019081526020016000206000600788604051610d0c9190615a19565b908152602001604051809103902089604051610d289190615a19565b908152602001604051809103902060008881526020019081526020016000208581548110610d5257fe5b9060005260206000200160009054906101000a900473ffffffffffffffffffffffffffffffffffffffff1673ffffffffffffffffffffffffffffffffffffffff1673ffffffffffffffffffffffffffffffffffffffff1681526020019081526020016000206005019080519060200190610dcd929190614e3e565b5087604051602001610ddf9190615a30565b604051602081830303815290604052600986604051610dfe9190615a19565b908152602001604051809103902087604051610e1a9190615a19565b908152602001604051809103902060008681526020019081526020016000206000600788604051610e4b9190615a19565b908152602001604051809103902089604051610e679190615a19565b908152602001604051809103902060008881526020019081526020016000208581548110610e9157fe5b9060005260206000200160009054906101000a900473ffffffffffffffffffffffffffffffffffffffff1673ffffffffffffffffffffffffffffffffffffffff1673ffffffffffffffffffffffffffffffffffffffff1681526020019081526020016000206006019080519060200190610f0c929190614e3e565b50600160046000600788604051610f239190615a19565b908152602001604051809103902089604051610f3f9190615a19565b908152602001604051809103902060008881526020019081526020016000208581548110610f6957fe5b9060005260206000200160009054906101000a900473ffffffffffffffffffffffffffffffffffffffff1673ffffffffffffffffffffffffffffffffffffffff1673ffffffffffffffffffffffffffffffffffffffff168152602001908152602001600020600201819055508560046000600788604051610fea9190615a19565b9081526020016040518091039020896040516110069190615a19565b90815260200160405180910390206000888152602001908152602001600020858154811061103057fe5b9060005260206000200160009054906101000a900473ffffffffffffffffffffffffffffffffffffffff1673ffffffffffffffffffffffffffffffffffffffff1673ffffffffffffffffffffffffffffffffffffffff16815260200190815260200160002060000190805190602001906110ab929190614e3e565b5084600460006007886040516110c19190615a19565b9081526020016040518091039020896040516110dd9190615a19565b90815260200160405180910390206000888152602001908152602001600020858154811061110757fe5b9060005260206000200160009054906101000a900473ffffffffffffffffffffffffffffffffffffffff1673ffffffffffffffffffffffffffffffffffffffff1673ffffffffffffffffffffffffffffffffffffffff1681526020019081526020016000206001019080519060200190611182929190614e3e565b505b508080600101915050610a66565b506040518060400160405280600881526020017f506f73697469766f0000000000000000000000000000000000000000000000008152506009846040516111d99190615a19565b9081526020016040518091039020856040516111f59190615a19565b9081526020016040518091039020600084815260200190815260200160002060003373ffffffffffffffffffffffffffffffffffffffff1673ffffffffffffffffffffffffffffffffffffffff1681526020019081526020016000206005019080519060200190611267929190614e3e565b50856040516020016112799190615a30565b6040516020818303038152906040526009846040516112989190615a19565b9081526020016040518091039020856040516112b49190615a19565b9081526020016040518091039020600084815260200190815260200160002060003373ffffffffffffffffffffffffffffffffffffffff1673ffffffffffffffffffffffffffffffffffffffff1681526020019081526020016000206006019080519060200190611326929190614e3e565b50600360405180606001604052808681526020018481526020018581525090806001815401808255809150506001900390600052602060002090600302016000909190919091506000820151816000019080519060200190611389929190614e3e565b506020820151816001015560408201518160020190805190602001906113b0929190614e3e565b5050506002600460003373ffffffffffffffffffffffffffffffffffffffff1673ffffffffffffffffffffffffffffffffffffffff1681526020019081526020016000206002018190555083600460003373ffffffffffffffffffffffffffffffffffffffff1673ffffffffffffffffffffffffffffffffffffffff1681526020019081526020016000206000019080519060200190611451929190614e3e565b5082600460003373ffffffffffffffffffffffffffffffffffffffff1673ffffffffffffffffffffffffffffffffffffffff16815260200190815260200160002060010190805190602001906114a8929190614e3e565b50505050505050565b600281815481106114c157600080fd5b9060005260206000209060020201600091509050806000015490806001018054600181600116156101000203166002900480601f0160208091040260200160405190810160405280929190818152602001828054600181600116156101000203166002900480156115735780601f1061154857610100808354040283529160200191611573565b820191906000526020600020905b81548152906001019060200180831161155657829003601f168201915b5050505050905082565b6008838051602081018201805184825260208301602085012081835280955050505050508280516020810182018051848252602083016020850120818352809550505050505081815481106115d157600080fd5b90600052602060002001600092509250509054906101000a900473ffffffffffffffffffffffffffffffffffffffff1681565b6000806008836040516116179190615a19565b9081526020016040518091039020846040516116339190615a19565b9081526020016040518091039020805490509050600081141561165557600190505b8091505092915050565b60008054906101000a900473ffffffffffffffffffffffffffffffffffffffff1681565b600a602052816000526040600020818154811061169f57600080fd5b906000526020600020906003020160009150915050806000018054600181600116156101000203166002900480601f01602080910402602001604051908101604052809291908181526020018280546001816001161561010002031660029004801561174c5780601f106117215761010080835404028352916020019161174c565b820191906000526020600020905b81548152906001019060200180831161172f57829003601f168201915b505050505090806001015490806002018054600181600116156101000203166002900480601f0160208091040260200160405190810160405280929190818152602001828054600181600116156101000203166002900480156117f05780601f106117c5576101008083540402835291602001916117f0565b820191906000526020600020905b8154815290600101906020018083116117d357829003601f168201915b5050505050905083565b60068380516020810182018051848252602083016020850120818352809550505050505082805160208101820180518482526020830160208501208183528095505050505050602052806000526040600020600092509250509054906101000a900460ff1681565b60606002828154811061187157fe5b90600052602060002090600202016001018054600181600116156101000203166002900480601f0160208091040260200160405190810160405280929190818152602001828054600181600116156101000203166002900480156119165780601f106118eb57610100808354040283529160200191611916565b820191906000526020600020905b8154815290600101906020018083116118f957829003601f168201915b50505050509050919050565b60018054600181600116156101000203166002900480601f0160208091040260200160405190810160405280929190818152602001828054600181600116156101000203166002900480156119b85780601f1061198d576101008083540402835291602001916119b8565b820191906000526020600020905b81548152906001019060200180831161199b57829003601f168201915b505050505081565b600583805160208101820180518482526020830160208501208183528095505050505050828051602081018201805184825260208301602085012081835280955050505050508181548110611a1457600080fd5b9060005260206000200160009250925050505481565b6000600280549050905090565b600080600a60003373ffffffffffffffffffffffffffffffffffffffff1673ffffffffffffffffffffffffffffffffffffffff168152602001908152602001600020805490501115611acc576001600a60003373ffffffffffffffffffffffffffffffffffffffff1673ffffffffffffffffffffffffffffffffffffffff168152602001908152602001600020805490500390505b6060600a60003373ffffffffffffffffffffffffffffffffffffffff1673ffffffffffffffffffffffffffffffffffffffff1681526020019081526020016000208281548110611b1857fe5b90600052602060002090600302016000018054600181600116156101000203166002900480601f016020809104026020016040519081016040528092919081815260200182805460018160011615610100020316600290048015611bbd5780601f10611b9257610100808354040283529160200191611bbd565b820191906000526020600020905b815481529060010190602001808311611ba057829003601f168201915b505050505090506060600a60003373ffffffffffffffffffffffffffffffffffffffff1673ffffffffffffffffffffffffffffffffffffffff1681526020019081526020016000208381548110611c1057fe5b90600052602060002090600302016002018054600181600116156101000203166002900480601f016020809104026020016040519081016040528092919081815260200182805460018160011615610100020316600290048015611cb55780601f10611c8a57610100808354040283529160200191611cb5565b820191906000526020600020905b815481529060010190602001808311611c9857829003601f168201915b505050505090506000600a60003373ffffffffffffffffffffffffffffffffffffffff1673ffffffffffffffffffffffffffffffffffffffff1681526020019081526020016000208481548110611d0857fe5b90600052602060002090600302016001015490506000606084905060608490506040518060400160405280600881526020017f4e6567617469766f000000000000000000000000000000000000000000000000815250600986604051611d6e9190615a19565b908152602001604051809103902087604051611d8a9190615a19565b9081526020016040518091039020600086815260200190815260200160002060003373ffffffffffffffffffffffffffffffffffffffff1673ffffffffffffffffffffffffffffffffffffffff1681526020019081526020016000206005019080519060200190611dfc929190614e3e565b5087604051602001611e0e9190615a30565b604051602081830303815290604052600986604051611e2d9190615a19565b908152602001604051809103902087604051611e499190615a19565b9081526020016040518091039020600086815260200190815260200160002060003373ffffffffffffffffffffffffffffffffffffffff1673ffffffffffffffffffffffffffffffffffffffff1681526020019081526020016000206006019080519060200190611ebb929190614e3e565b50600360405180606001604052808881526020018681526020018781525090806001815401808255809150506001900390600052602060002090600302016000909190919091506000820151816000019080519060200190611f1e929190614e3e565b50602082015181600101556040820151816002019080519060200190611f45929190614e3e565b505050606060038481548110611f5757fe5b90600052602060002090600302016000018054600181600116156101000203166002900480601f016020809104026020016040519081016040528092919081815260200182805460018160011615610100020316600290048015611ffc5780601f10611fd157610100808354040283529160200191611ffc565b820191906000526020600020905b815481529060010190602001808311611fdf57829003601f168201915b5050505050905060606003858154811061201257fe5b90600052602060002090600302016002018054600181600116156101000203166002900480601f0160208091040260200160405190810160405280929190818152602001828054600181600116156101000203166002900480156120b75780601f1061208c576101008083540402835291602001916120b7565b820191906000526020600020905b81548152906001019060200180831161209a57829003601f168201915b505050505090505b60038054905085108015612123575083805190602001208280519060200120141580612109575085600386815481106120f457fe5b90600052602060002090600302016001015414155b8061212257508280519060200120818051906020012014155b5b156122a75784806001019550506003858154811061213d57fe5b90600052602060002090600302016000018054600181600116156101000203166002900480601f0160208091040260200160405190810160405280929190818152602001828054600181600116156101000203166002900480156121e25780601f106121b7576101008083540402835291602001916121e2565b820191906000526020600020905b8154815290600101906020018083116121c557829003601f168201915b50505050509150600385815481106121f657fe5b90600052602060002090600302016002018054600181600116156101000203166002900480601f01602080910402602001604051908101604052809291908181526020018280546001816001161561010002031660029004801561229b5780601f106122705761010080835404028352916020019161229b565b820191906000526020600020905b81548152906001019060200180831161227e57829003601f168201915b505050505090506120bf565b60008590505b6001600380549050038110156123cc57600360018201815481106122cd57fe5b9060005260206000209060030201600001600382815481106122eb57fe5b9060005260206000209060030201600001908054600181600116156101000203166002900461231b929190614ecc565b506003600182018154811061232c57fe5b9060005260206000209060030201600101546003828154811061234b57fe5b9060005260206000209060030201600101819055506003600182018154811061237057fe5b90600052602060002090600302016002016003828154811061238e57fe5b906000526020600020906003020160020190805460018160011615610100020316600290046123be929190614ecc565b5080806001019150506122ad565b5060038054806123d857fe5b6001900381819060005260206000209060030201600080820160006123fd9190614f61565b60018201600090556002820160006124159190614f61565b50509055600094506003600460003373ffffffffffffffffffffffffffffffffffffffff1673ffffffffffffffffffffffffffffffffffffffff1681526020019081526020016000206002018190555060405180602001604052806000815250600460003373ffffffffffffffffffffffffffffffffffffffff1673ffffffffffffffffffffffffffffffffffffffff16815260200190815260200160002060000190805190602001906124ca929190614e3e565b5060405180602001604052806000815250600460003373ffffffffffffffffffffffffffffffffffffffff1673ffffffffffffffffffffffffffffffffffffffff1681526020019081526020016000206001019080519060200190612530929190614e3e565b5050505050505050505050565b6004602052806000526040600020600091509050806000018054600181600116156101000203166002900480601f0160208091040260200160405190810160405280929190818152602001828054600181600116156101000203166002900480156125e95780601f106125be576101008083540402835291602001916125e9565b820191906000526020600020905b8154815290600101906020018083116125cc57829003601f168201915b505050505090806001018054600181600116156101000203166002900480601f0160208091040260200160405190810160405280929190818152602001828054600181600116156101000203166002900480156126875780601f1061265c57610100808354040283529160200191612687565b820191906000526020600020905b81548152906001019060200180831161266a57829003601f168201915b5050505050908060020154905083565b606060008060006005856040516126ae9190615a19565b9081526020016040518091039020866040516126ca9190615a19565b908152602001604051809103902080549050905060005b81811015612798576007866040516126f99190615a19565b9081526020016040518091039020876040516127159190615a19565b908152602001604051809103902060006005886040516127359190615a19565b9081526020016040518091039020896040516127519190615a19565b9081526020016040518091039020838154811061276a57fe5b90600052602060002001548152602001908152602001600020805490508401935080806001019150506126e1565b5060008111156134905760608367ffffffffffffffff811180156127bb57600080fd5b506040519080825280602002602001820160405280156127f557816020015b6127e2614fa9565b8152602001906001900390816127da5790505b50905060005b828110156134775760606007886040516128159190615a19565b9081526020016040518091039020896040516128319190615a19565b9081526020016040518091039020600060058a6040516128519190615a19565b90815260200160405180910390208b60405161286d9190615a19565b9081526020016040518091039020848154811061288657fe5b9060005260206000200154815260200190815260200160002080548060200260200160405190810160405280929190818152602001828054801561291f57602002820191906000526020600020905b8160009054906101000a900473ffffffffffffffffffffffffffffffffffffffff1673ffffffffffffffffffffffffffffffffffffffff16815260200190600101908083116128d5575b5050505050905060008590505b85825101811015613462576009896040516129479190615a19565b90815260200160405180910390208a6040516129639190615a19565b9081526020016040518091039020600060058b6040516129839190615a19565b90815260200160405180910390208c60405161299f9190615a19565b908152602001604051809103902085815481106129b857fe5b9060005260206000200154815260200190815260200160002060008383815181106129df57fe5b602002602001015173ffffffffffffffffffffffffffffffffffffffff1673ffffffffffffffffffffffffffffffffffffffff16815260200190815260200160002060000160009054906101000a900473ffffffffffffffffffffffffffffffffffffffff16848281518110612a5157fe5b60200260200101516000019073ffffffffffffffffffffffffffffffffffffffff16908173ffffffffffffffffffffffffffffffffffffffff1681525050600989604051612a9f9190615a19565b90815260200160405180910390208a604051612abb9190615a19565b9081526020016040518091039020600060058b604051612adb9190615a19565b90815260200160405180910390208c604051612af79190615a19565b90815260200160405180910390208581548110612b1057fe5b906000526020600020015481526020019081526020016000206000838381518110612b3757fe5b602002602001015173ffffffffffffffffffffffffffffffffffffffff1673ffffffffffffffffffffffffffffffffffffffff1681526020019081526020016000206001018054600181600116156101000203166002900480601f016020809104026020016040519081016040528092919081815260200182805460018160011615610100020316600290048015612c105780601f10612be557610100808354040283529160200191612c10565b820191906000526020600020905b815481529060010190602001808311612bf357829003601f168201915b5050505050848281518110612c2157fe5b602002602001015160200181905250600989604051612c409190615a19565b90815260200160405180910390208a604051612c5c9190615a19565b9081526020016040518091039020600060058b604051612c7c9190615a19565b90815260200160405180910390208c604051612c989190615a19565b90815260200160405180910390208581548110612cb157fe5b906000526020600020015481526020019081526020016000206000838381518110612cd857fe5b602002602001015173ffffffffffffffffffffffffffffffffffffffff1673ffffffffffffffffffffffffffffffffffffffff1681526020019081526020016000206002018054600181600116156101000203166002900480601f016020809104026020016040519081016040528092919081815260200182805460018160011615610100020316600290048015612db15780601f10612d8657610100808354040283529160200191612db1565b820191906000526020600020905b815481529060010190602001808311612d9457829003601f168201915b5050505050848281518110612dc257fe5b602002602001015160400181905250600989604051612de19190615a19565b90815260200160405180910390208a604051612dfd9190615a19565b9081526020016040518091039020600060058b604051612e1d9190615a19565b90815260200160405180910390208c604051612e399190615a19565b90815260200160405180910390208581548110612e5257fe5b906000526020600020015481526020019081526020016000206000838381518110612e7957fe5b602002602001015173ffffffffffffffffffffffffffffffffffffffff1673ffffffffffffffffffffffffffffffffffffffff1681526020019081526020016000206003018054600181600116156101000203166002900480601f016020809104026020016040519081016040528092919081815260200182805460018160011615610100020316600290048015612f525780601f10612f2757610100808354040283529160200191612f52565b820191906000526020600020905b815481529060010190602001808311612f3557829003601f168201915b5050505050848281518110612f6357fe5b602002602001015160600181905250600989604051612f829190615a19565b90815260200160405180910390208a604051612f9e9190615a19565b9081526020016040518091039020600060058b604051612fbe9190615a19565b90815260200160405180910390208c604051612fda9190615a19565b90815260200160405180910390208581548110612ff357fe5b90600052602060002001548152602001908152602001600020600083838151811061301a57fe5b602002602001015173ffffffffffffffffffffffffffffffffffffffff1673ffffffffffffffffffffffffffffffffffffffff1681526020019081526020016000206004018054600181600116156101000203166002900480601f0160208091040260200160405190810160405280929190818152602001828054600181600116156101000203166002900480156130f35780601f106130c8576101008083540402835291602001916130f3565b820191906000526020600020905b8154815290600101906020018083116130d657829003601f168201915b505050505084828151811061310457fe5b6020026020010151608001819052506009896040516131239190615a19565b90815260200160405180910390208a60405161313f9190615a19565b9081526020016040518091039020600060058b60405161315f9190615a19565b90815260200160405180910390208c60405161317b9190615a19565b9081526020016040518091039020858154811061319457fe5b9060005260206000200154815260200190815260200160002060008383815181106131bb57fe5b602002602001015173ffffffffffffffffffffffffffffffffffffffff1673ffffffffffffffffffffffffffffffffffffffff1681526020019081526020016000206005018054600181600116156101000203166002900480601f0160208091040260200160405190810160405280929190818152602001828054600181600116156101000203166002900480156132945780601f1061326957610100808354040283529160200191613294565b820191906000526020600020905b81548152906001019060200180831161327757829003601f168201915b50505050508482815181106132a557fe5b602002602001015160a001819052506009896040516132c49190615a19565b90815260200160405180910390208a6040516132e09190615a19565b9081526020016040518091039020600060058b6040516133009190615a19565b90815260200160405180910390208c60405161331c9190615a19565b9081526020016040518091039020858154811061333557fe5b90600052602060002001548152602001908152602001600020600083838151811061335c57fe5b602002602001015173ffffffffffffffffffffffffffffffffffffffff1673ffffffffffffffffffffffffffffffffffffffff1681526020019081526020016000206006018054600181600116156101000203166002900480601f0160208091040260200160405190810160405280929190818152602001828054600181600116156101000203166002900480156134355780601f1061340a57610100808354040283529160200191613435565b820191906000526020600020905b81548152906001019060200180831161341857829003601f168201915b505050505084828151811061344657fe5b602002602001015160c00181905250808060010191505061292c565b508051850194505080806001019150506127fb565b50600092506000935060009150809450505050506136e9565b6060600167ffffffffffffffff811180156134aa57600080fd5b506040519080825280602002602001820160405280156134e457816020015b6134d1614fa9565b8152602001906001900390816134c95790505b509050733b3ddfb4c96a81b305294f445a7d7cb185b0fbb28160008151811061350957fe5b60200260200101516000019073ffffffffffffffffffffffffffffffffffffffff16908173ffffffffffffffffffffffffffffffffffffffff16815250506040518060400160405280600b81526020017f444953504f4e49424c45530000000000000000000000000000000000000000008152508160008151811061358a57fe5b6020026020010151602001819052506040518060400160405280600b81526020017f454e204c41204645434841000000000000000000000000000000000000000000815250816000815181106135dc57fe5b6020026020010151604001819052506040518060400160405280600181526020017f59000000000000000000000000000000000000000000000000000000000000008152508160008151811061362e57fe5b6020026020010151606001819052506040518060400160405280600481526020017f45535441000000000000000000000000000000000000000000000000000000008152508160008151811061368057fe5b6020026020010151608001819052506040518060400160405280600481526020017f41554c4100000000000000000000000000000000000000000000000000000000815250816000815181106136d257fe5b602002602001015160a00181905250809450505050505b92915050565b6000811015613733576040517f08c379a000000000000000000000000000000000000000000000000000000000815260040161372a90615c4f565b60405180910390fd5b60026001600280549050038154811061374857fe5b90600052602060002090600202016001016002828154811061376657fe5b90600052602060002090600202016001019080546001816001161561010002031660029004613796929190614ecc565b506002600160028054905003815481106137ac57fe5b906000526020600020906002020160000154600282815481106137cb57fe5b90600052602060002090600202016000018190555060028054806137eb57fe5b60019003818190600052602060002090600202016000808201600090556001820160006138189190614f61565b5050905550565b613827614ffc565b600460008373ffffffffffffffffffffffffffffffffffffffff1673ffffffffffffffffffffffffffffffffffffffff168152602001908152602001600020604051806060016040529081600082018054600181600116156101000203166002900480601f01602080910402602001604051908101604052809291908181526020018280546001816001161561010002031660029004801561390a5780601f106138df5761010080835404028352916020019161390a565b820191906000526020600020905b8154815290600101906020018083116138ed57829003601f168201915b50505050508152602001600182018054600181600116156101000203166002900480601f0160208091040260200160405190810160405280929190818152602001828054600181600116156101000203166002900480156139ac5780601f10613981576101008083540402835291602001916139ac565b820191906000526020600020905b81548152906001019060200180831161398f57829003601f168201915b505050505081526020016002820154815250509050919050565b600381815481106139d657600080fd5b9060005260206000209060030201600091509050806000018054600181600116156101000203166002900480601f016020809104026020016040519081016040528092919081815260200182805460018160011615610100020316600290048015613a825780601f10613a5757610100808354040283529160200191613a82565b820191906000526020600020905b815481529060010190602001808311613a6557829003601f168201915b505050505090806001015490806002018054600181600116156101000203166002900480601f016020809104026020016040519081016040528092919081815260200182805460018160011615610100020316600290048015613b265780601f10613afb57610100808354040283529160200191613b26565b820191906000526020600020905b815481529060010190602001808311613b0957829003601f168201915b5050505050905083565b60006060829050600081511415613b7c576040517f08c379a0000000000000000000000000000000000000000000000000000000008152600401613b7390615bef565b60405180910390fd5b600260405180604001604052806002805490508152602001858152509080600181540180825580915050600190039060005260206000209060020201600090919091909150600082015181600001556020820151816001019080519060200190613be7929190614e3e565b505050600160028054905003915050919050565b600784805160208101820180518482526020830160208501208183528095505050505050838051602081018201805184825260208301602085012081835280955050505050506020528160005260406000208181548110613c5b57600080fd5b9060005260206000200160009350935050509054906101000a900473ffffffffffffffffffffffffffffffffffffffff1681565b6000600a60008373ffffffffffffffffffffffffffffffffffffffff1673ffffffffffffffffffffffffffffffffffffffff168152602001908152602001600020805490509050919050565b6000600460003373ffffffffffffffffffffffffffffffffffffffff1673ffffffffffffffffffffffffffffffffffffffff16815260200190815260200160002060020181905550565b6060859050600081511415613d6f576040517f08c379a0000000000000000000000000000000000000000000000000000000008152600401613d6690615c6f565b60405180910390fd5b6060859050600081511415613db9576040517f08c379a0000000000000000000000000000000000000000000000000000000008152600401613db090615c2f565b60405180910390fd5b6060859050600081511415613e03576040517f08c379a0000000000000000000000000000000000000000000000000000000008152600401613dfa90615caf565b60405180910390fd5b6060859050600081511415613e4d576040517f08c379a0000000000000000000000000000000000000000000000000000000008152600401613e4490615c0f565b60405180910390fd5b33600988604051613e5e9190615a19565b90815260200160405180910390208a604051613e7a9190615a19565b9081526020016040518091039020600087815260200190815260200160002060003373ffffffffffffffffffffffffffffffffffffffff1673ffffffffffffffffffffffffffffffffffffffff16815260200190815260200160002060000160006101000a81548173ffffffffffffffffffffffffffffffffffffffff021916908373ffffffffffffffffffffffffffffffffffffffff16021790555086600988604051613f289190615a19565b90815260200160405180910390208a604051613f449190615a19565b9081526020016040518091039020600087815260200190815260200160002060003373ffffffffffffffffffffffffffffffffffffffff1673ffffffffffffffffffffffffffffffffffffffff1681526020019081526020016000206001019080519060200190613fb6929190614e3e565b5087600988604051613fc89190615a19565b90815260200160405180910390208a604051613fe49190615a19565b9081526020016040518091039020600087815260200190815260200160002060003373ffffffffffffffffffffffffffffffffffffffff1673ffffffffffffffffffffffffffffffffffffffff1681526020019081526020016000206002019080519060200190614056929190614e3e565b50856009886040516140689190615a19565b90815260200160405180910390208a6040516140849190615a19565b9081526020016040518091039020600087815260200190815260200160002060003373ffffffffffffffffffffffffffffffffffffffff1673ffffffffffffffffffffffffffffffffffffffff16815260200190815260200160002060040190805190602001906140f6929190614e3e565b506000600460003373ffffffffffffffffffffffffffffffffffffffff1673ffffffffffffffffffffffffffffffffffffffff16815260200190815260200160002060020154141561421c576040518060400160405280600781526020017f496e696369616c000000000000000000000000000000000000000000000000008152506009886040516141889190615a19565b90815260200160405180910390208a6040516141a49190615a19565b9081526020016040518091039020600087815260200190815260200160002060003373ffffffffffffffffffffffffffffffffffffffff1673ffffffffffffffffffffffffffffffffffffffff1681526020019081526020016000206005019080519060200190614216929190614e3e565b5061453e565b6001600460003373ffffffffffffffffffffffffffffffffffffffff1673ffffffffffffffffffffffffffffffffffffffff168152602001908152602001600020600201541415614341576040518060400160405280600a81526020017f536f73706563686f736f000000000000000000000000000000000000000000008152506009886040516142ad9190615a19565b90815260200160405180910390208a6040516142c99190615a19565b9081526020016040518091039020600087815260200190815260200160002060003373ffffffffffffffffffffffffffffffffffffffff1673ffffffffffffffffffffffffffffffffffffffff168152602001908152602001600020600501908051906020019061433b929190614e3e565b5061453d565b6002600460003373ffffffffffffffffffffffffffffffffffffffff1673ffffffffffffffffffffffffffffffffffffffff168152602001908152602001600020600201541415614466576040518060400160405280600881526020017f506f73697469766f0000000000000000000000000000000000000000000000008152506009886040516143d29190615a19565b90815260200160405180910390208a6040516143ee9190615a19565b9081526020016040518091039020600087815260200190815260200160002060003373ffffffffffffffffffffffffffffffffffffffff1673ffffffffffffffffffffffffffffffffffffffff1681526020019081526020016000206005019080519060200190614460929190614e3e565b5061453c565b6040518060400160405280600881526020017f4e6567617469766f0000000000000000000000000000000000000000000000008152506009886040516144ac9190615a19565b90815260200160405180910390208a6040516144c89190615a19565b9081526020016040518091039020600087815260200190815260200160002060003373ffffffffffffffffffffffffffffffffffffffff1673ffffffffffffffffffffffffffffffffffffffff168152602001908152602001600020600501908051906020019061453a929190614e3e565b505b5b5b60078760405161454e9190615a19565b90815260200160405180910390208960405161456a9190615a19565b90815260200160405180910390206000868152602001908152602001600020339080600181540180825580915050600190039060005260206000200160009091909190916101000a81548173ffffffffffffffffffffffffffffffffffffffff021916908373ffffffffffffffffffffffffffffffffffffffff1602179055506008876040516145fa9190615a19565b9081526020016040518091039020896040516146169190615a19565b9081526020016040518091039020339080600181540180825580915050600190039060005260206000200160009091909190916101000a81548173ffffffffffffffffffffffffffffffffffffffff021916908373ffffffffffffffffffffffffffffffffffffffff160217905550600a60003373ffffffffffffffffffffffffffffffffffffffff1673ffffffffffffffffffffffffffffffffffffffff16815260200190815260200160002060405180606001604052808b81526020018781526020018981525090806001815401808255809150506001900390600052602060002090600302016000909190919091506000820151816000019080519060200190614724929190614e3e565b5060208201518160010155604082015181600201908051906020019061474b929190614e3e565b505050600015156006886040516147629190615a19565b90815260200160405180910390208a60405161477e9190615a19565b9081526020016040518091039020600087815260200190815260200160002060009054906101000a900460ff1615151415614879576005876040516147c39190615a19565b9081526020016040518091039020896040516147df9190615a19565b908152602001604051809103902085908060018154018082558091505060019003906000526020600020016000909190919091505560016006886040516148269190615a19565b90815260200160405180910390208a6040516148429190615a19565b9081526020016040518091039020600087815260200190815260200160002060006101000a81548160ff0219169083151502179055505b505050505050505050565b826009836040516148959190615a19565b9081526020016040518091039020856040516148b19190615a19565b9081526020016040518091039020600083815260200190815260200160002060003373ffffffffffffffffffffffffffffffffffffffff1673ffffffffffffffffffffffffffffffffffffffff1681526020019081526020016000206003019080519060200190614923929190614e3e565b5050505050565b600984805160208101820180518482526020830160208501208183528095505050505050838051602081018201805184825260208301602085012081835280955050505050506020528160005260406000206020528060005260406000206000935093505050508060000160009054906101000a900473ffffffffffffffffffffffffffffffffffffffff1690806001018054600181600116156101000203166002900480601f016020809104026020016040519081016040528092919081815260200182805460018160011615610100020316600290048015614a4f5780601f10614a2457610100808354040283529160200191614a4f565b820191906000526020600020905b815481529060010190602001808311614a3257829003601f168201915b505050505090806002018054600181600116156101000203166002900480601f016020809104026020016040519081016040528092919081815260200182805460018160011615610100020316600290048015614aed5780601f10614ac257610100808354040283529160200191614aed565b820191906000526020600020905b815481529060010190602001808311614ad057829003601f168201915b505050505090806003018054600181600116156101000203166002900480601f016020809104026020016040519081016040528092919081815260200182805460018160011615610100020316600290048015614b8b5780601f10614b6057610100808354040283529160200191614b8b565b820191906000526020600020905b815481529060010190602001808311614b6e57829003601f168201915b505050505090806004018054600181600116156101000203166002900480601f016020809104026020016040519081016040528092919081815260200182805460018160011615610100020316600290048015614c295780601f10614bfe57610100808354040283529160200191614c29565b820191906000526020600020905b815481529060010190602001808311614c0c57829003601f168201915b505050505090806005018054600181600116156101000203166002900480601f016020809104026020016040519081016040528092919081815260200182805460018160011615610100020316600290048015614cc75780601f10614c9c57610100808354040283529160200191614cc7565b820191906000526020600020905b815481529060010190602001808311614caa57829003601f168201915b505050505090806006018054600181600116156101000203166002900480601f016020809104026020016040519081016040528092919081815260200182805460018160011615610100020316600290048015614d655780601f10614d3a57610100808354040283529160200191614d65565b820191906000526020600020905b815481529060010190602001808311614d4857829003601f168201915b5050505050905087565b600080600884604051614d829190615a19565b908152602001604051809103902085604051614d9e9190615a19565b9081526020016040518091039020805490501115614e33576000600884604051614dc89190615a19565b908152602001604051809103902085604051614de49190615a19565b90815260200160405180910390208381548110614dfd57fe5b9060005260206000200160009054906101000a900473ffffffffffffffffffffffffffffffffffffffff16905080915050614e37565b3390505b9392505050565b828054600181600116156101000203166002900490600052602060002090601f016020900481019282614e745760008555614ebb565b82601f10614e8d57805160ff1916838001178555614ebb565b82800160010185558215614ebb579182015b82811115614eba578251825591602001919060010190614e9f565b5b509050614ec8919061501d565b5090565b828054600181600116156101000203166002900490600052602060002090601f016020900481019282614f025760008555614f50565b82601f10614f135780548555614f50565b82800160010185558215614f5057600052602060002091601f016020900482015b82811115614f4f578254825591600101919060010190614f34565b5b509050614f5d919061501d565b5090565b50805460018160011615610100020316600290046000825580601f10614f875750614fa6565b601f016020900490600052602060002090810190614fa5919061501d565b5b50565b6040518060e00160405280600073ffffffffffffffffffffffffffffffffffffffff1681526020016060815260200160608152602001606081526020016060815260200160608152602001606081525090565b60405180606001604052806060815260200160608152602001600081525090565b5b8082111561503657600081600090555060010161501e565b5090565b60008135905061504981615eab565b92915050565b600082601f83011261506057600080fd5b813561507361506e82615d6d565b615d3c565b9150808252602083016020830185838301111561508f57600080fd5b61509a838284615e56565b50505092915050565b6000813590506150b281615ec2565b92915050565b6000602082840312156150ca57600080fd5b60006150d88482850161503a565b91505092915050565b600080604083850312156150f457600080fd5b60006151028582860161503a565b9250506020615113858286016150a3565b9150509250929050565b60006020828403121561512f57600080fd5b600082013567ffffffffffffffff81111561514957600080fd5b6151558482850161504f565b91505092915050565b6000806040838503121561517157600080fd5b600083013567ffffffffffffffff81111561518b57600080fd5b6151978582860161504f565b925050602083013567ffffffffffffffff8111156151b457600080fd5b6151c08582860161504f565b9150509250929050565b600080600080600060a086880312156151e257600080fd5b600086013567ffffffffffffffff8111156151fc57600080fd5b6152088882890161504f565b955050602086013567ffffffffffffffff81111561522557600080fd5b6152318882890161504f565b945050604086013567ffffffffffffffff81111561524e57600080fd5b61525a8882890161504f565b935050606086013567ffffffffffffffff81111561527757600080fd5b6152838882890161504f565b9250506080615294888289016150a3565b9150509295509295909350565b600080600080608085870312156152b757600080fd5b600085013567ffffffffffffffff8111156152d157600080fd5b6152dd8782880161504f565b945050602085013567ffffffffffffffff8111156152fa57600080fd5b6153068782880161504f565b935050604085013567ffffffffffffffff81111561532357600080fd5b61532f8782880161504f565b9250506060615340878288016150a3565b91505092959194509250565b60008060006060848603121561536157600080fd5b600084013567ffffffffffffffff81111561537b57600080fd5b6153878682870161504f565b935050602084013567ffffffffffffffff8111156153a457600080fd5b6153b08682870161504f565b92505060406153c1868287016150a3565b9150509250925092565b600080600080608085870312156153e157600080fd5b600085013567ffffffffffffffff8111156153fb57600080fd5b6154078782880161504f565b945050602085013567ffffffffffffffff81111561542457600080fd5b6154308782880161504f565b9350506040615441878288016150a3565b92505060606154528782880161503a565b91505092959194509250565b6000806000806080858703121561547457600080fd5b600085013567ffffffffffffffff81111561548e57600080fd5b61549a8782880161504f565b945050602085013567ffffffffffffffff8111156154b757600080fd5b6154c38782880161504f565b93505060406154d4878288016150a3565b92505060606154e5878288016150a3565b91505092959194509250565b60006020828403121561550357600080fd5b6000615511848285016150a3565b91505092915050565b6000615526838361593c565b905092915050565b61553781615e0e565b82525050565b61554681615e0e565b82525050565b600061555782615dad565b6155618185615dd0565b93508360208202850161557385615d9d565b8060005b858110156155af5784840389528151615590858261551a565b945061559b83615dc3565b925060208a01995050600181019050615577565b50829750879550505050505092915050565b6155ca81615e20565b82525050565b60006155db82615db8565b6155e58185615de1565b93506155f5818560208601615e65565b6155fe81615e9a565b840191505092915050565b600061561482615db8565b61561e8185615df2565b935061562e818560208601615e65565b61563781615e9a565b840191505092915050565b600061564d82615db8565b6156578185615e03565b9350615667818560208601615e65565b80840191505092915050565b6000615680602583615df2565b91507f456c206e6f6d6272652064656c2061756c61206e6f207075656465207365722060008301527f766163696f0000000000000000000000000000000000000000000000000000006020830152604082019050919050565b60006156e6601c83615df2565b91507f456c2070756573746f206e6f2070756564652073657220766163696f000000006000830152602082019050919050565b6000615726602583615df2565b91507f4c6120686f726120646520656e7472616461206e6f207075656465207365722060008301527f766163696f0000000000000000000000000000000000000000000000000000006020830152604082019050919050565b600061578c600983615e03565b91507f446573646520656c2000000000000000000000000000000000000000000000006000830152600982019050919050565b60006157cc601f83615df2565b91507f456c20696e64696365206e6f20707565646520736572206e6567617469766f006000830152602082019050919050565b600061580c601c83615df2565b91507f456c206e6f6d627265206e6f2070756564652073657220766163696f000000006000830152602082019050919050565b600061584c602583615df2565b91507f4e6f207365207065726d697465206c6120726563657063696f6e20646520646960008301527f6e65726f2e0000000000000000000000000000000000000000000000000000006020830152604082019050919050565b60006158b2601b83615df2565b91507f4c61206665636861206e6f2070756564652073657220766163696f00000000006000830152602082019050919050565b6000606083016000830151848203600086015261590282826155d0565b9150506020830151848203602086015261591c82826155d0565b915050604083015161593160408601826159fb565b508091505092915050565b600060e083016000830151615954600086018261552e565b506020830151848203602086015261596c82826155d0565b9150506040830151848203604086015261598682826155d0565b915050606083015184820360608601526159a082826155d0565b915050608083015184820360808601526159ba82826155d0565b91505060a083015184820360a08601526159d482826155d0565b91505060c083015184820360c08601526159ee82826155d0565b9150508091505092915050565b615a0481615e4c565b82525050565b615a1381615e4c565b82525050565b6000615a258284615642565b915081905092915050565b6000615a3b8261577f565b9150615a478284615642565b915081905092915050565b6000602082019050615a67600083018461553d565b92915050565b600060e082019050615a82600083018a61553d565b8181036020830152615a948189615609565b90508181036040830152615aa88188615609565b90508181036060830152615abc8187615609565b90508181036080830152615ad08186615609565b905081810360a0830152615ae48185615609565b905081810360c0830152615af88184615609565b905098975050505050505050565b60006020820190508181036000830152615b20818461554c565b905092915050565b6000602082019050615b3d60008301846155c1565b92915050565b60006020820190508181036000830152615b5d8184615609565b905092915050565b60006060820190508181036000830152615b7f8186615609565b90508181036020830152615b938185615609565b9050615ba26040830184615a0a565b949350505050565b60006060820190508181036000830152615bc48186615609565b9050615bd36020830185615a0a565b8181036040830152615be58184615609565b9050949350505050565b60006020820190508181036000830152615c0881615673565b9050919050565b60006020820190508181036000830152615c28816156d9565b9050919050565b60006020820190508181036000830152615c4881615719565b9050919050565b60006020820190508181036000830152615c68816157bf565b9050919050565b60006020820190508181036000830152615c88816157ff565b9050919050565b60006020820190508181036000830152615ca88161583f565b9050919050565b60006020820190508181036000830152615cc8816158a5565b9050919050565b60006020820190508181036000830152615ce981846158e5565b905092915050565b6000602082019050615d066000830184615a0a565b92915050565b6000604082019050615d216000830185615a0a565b8181036020830152615d338184615609565b90509392505050565b6000604051905081810181811067ffffffffffffffff82111715615d6357615d62615e98565b5b8060405250919050565b600067ffffffffffffffff821115615d8857615d87615e98565b5b601f19601f8301169050602081019050919050565b6000819050602082019050919050565b600081519050919050565b600081519050919050565b6000602082019050919050565b600082825260208201905092915050565b600082825260208201905092915050565b600082825260208201905092915050565b600081905092915050565b6000615e1982615e2c565b9050919050565b60008115159050919050565b600073ffffffffffffffffffffffffffffffffffffffff82169050919050565b6000819050919050565b82818337600083830152505050565b60005b83811015615e83578082015181840152602081019050615e68565b83811115615e92576000848401525b50505050565bfe5b6000601f19601f8301169050919050565b615eb481615e0e565b8114615ebf57600080fd5b50565b615ecb81615e4c565b8114615ed657600080fd5b5056fea26469706673582212202ace0dd014cc27b3b313ab3070e4173464b78bf09005dd1ba8d56003169cdb1164736f6c63430007040033",
  "immutableReferences": {},
  "source": "// SPDX-License-Identifier: UNLICENSED\npragma solidity ^0.7.4;\npragma experimental ABIEncoderV2;\n\n\n/**\n *  El contrato Escuela representa las aulas de la escuela.\n * \n */\ncontract Escuela {\n    \n    /**\n     * address del administrador que ha desplegado el contrato.\n     * El contrato lo despliega el admin.\n     */\n    address public administrador;\n    \n    /// Nombre de la escuela\n    string public escuela;\n\t\n\n    /// Datos de un Aula.\n    struct DatosAula {\n        uint indice;\n        string nombre;\n    }\n\n        \n    /**\n     * Datos de una entrada.\n     */\n    struct Entrada {\n\taddress dir;\n\tstring fecha;\n\tstring ent;\n\tstring sal;\n        string puesto;\n\tstring estado;\n\tstring info;\n    }\n\n\n     /**\n     * Datos de ultima entrada.\n     */\n    struct UltimaEntrada {\n\tstring aula;\n        uint turno;\n\tstring fecha;\n    }\n\n\n    /**\n     * Datos de una alerta de usuario.\n     */\n    struct AlertaUsuario {\n\tstring aula;\n\tstring fecha;\n\tuint estado;\n    }\n\n\n    \n    /// Aulas de la escuela.\n    DatosAula[] public aulas;\n\n    /// Alertas de la escuela.\n    UltimaEntrada[] public alertasEscuela;\n\n    /// Alertas para un usuario.\n    mapping (address => AlertaUsuario) public alertasUsuario;\n\n    /// Turnos de la escuela.\n    mapping (string => mapping (string  => uint[] )) public turnos;\n\n    /// Mapping para evitar duplicados de turnos.\n    mapping (string => mapping (string  => mapping ( uint => bool ))) public turnos_existentes;\n\n\n    /// Direcciones de las personas que han asistido a algun aula en alguna de las fechas y en algun turno.\n    mapping (string => mapping (string => mapping (uint => address[] ))) public personas;\n   \n    /// Direcciones de las personas que han asistido a algun aula en alguna de las fechas.\n    mapping (string => mapping (string => address[] )) public personasTotales;\n    \n    // Dada la fecha actual, el nombre del aula, el turno y la direccin de la persona, devuelve\n    // la entrada correspondiente a dicha persona.\n    mapping (string => mapping (string => mapping (uint => mapping (address => Entrada)))) public datosAula;\n\n    \n    /// Ultimas entradas de cada persona.\n    mapping (address => UltimaEntrada[] ) public ultimosRegistros;\n\n\n    /**\n     * Constructor.\n     * \n     * @param _nombre Nombre de la escuela.\n     */\n    constructor(string memory _nombre) {\n      \n        administrador = msg.sender;\n        escuela = _nombre;\n    }\n    \n\n    \n    /**\n     * El numero de aulas creadas.\n     *\n     * @return El numero de aulas creadas.\n     */\n    function aulasLength() public view returns(uint) {\n        return aulas.length;\n\n    }\n\n\n    /**\n     * El numero de alertas existentes.\n     *\n     * @return El numero de alertas existentes.\n     */\n    function alertasLength() public view returns(uint) {\n        return alertasEscuela.length;\n\n    }\n\n\t  /**\n     * El numero de ultimosRegistros existentes.\n     *\n     * @return El numero de ultimosRegistros existentes.\n     */\n    function ultimosRegistrosLength(address dir) public view returns(uint) {\n\treturn ultimosRegistros[dir].length;\n    }\n        \n    /**\n     * Permite obtener la longitud del array de personasTotales.\n     * \n     */\n    function personasLength(string memory _nombre, string memory _fecha) public view returns(uint) {\n\n\tuint longitud = personasTotales[_fecha][_nombre].length;\n\n\tif(longitud == 0){\n\t  longitud = 1;\n\t}\n\n  \treturn longitud;\n\n    }\n\n\n\n    /**\n     * Permite obtener un address del array de personas.\n     * \n     */\n    function dirPersonas(string memory _nombre, string memory _fecha, uint _indice) public view returns(address) {\n\n\tif(personasTotales[_fecha][_nombre].length > 0){\n\taddress _dirUno = personasTotales[_fecha][_nombre][_indice];\n\treturn _dirUno;\n\n\t}else{\n\treturn msg.sender;\n\t}\t\t\t\n\t\n    }\n\n\n        /**\n     * La alerta (si la hay) de un usuario.\n     *\n     */\n    function alertas(address _dir) public view returns (AlertaUsuario memory) {\n\n\treturn alertasUsuario[_dir]; \n    }\n\n\n\n    /**\n     * Eliminar la alerta de un usuario\n     *\n     */\n    function reiniciarAlerta() public {\n\n\talertasUsuario[msg.sender].estado = 0;\n\n\n    }\n\n        /**\n     * El aula del que se desea ver el historial.\n     *\n     */\n    function aulaPulsada(uint x) public view returns (string memory) {\n\n\treturn aulas[x].nombre; \n    }\n\n    \n    /**\n     * Crear un aula. \n     *\n     * Las aulas se meteran en el array aulas, y nos referiremos a ellas por su posicion en el array.\n     * \n     * @param _nombre El nombre del aula.\n     * \n     * @return La posicion en el array aulas,\n     */\n    function crearAula(string memory _nombre) public returns (uint) {\n        \n        bytes memory bn = bytes(_nombre);\n        require(bn.length != 0, \"El nombre del aula no puede ser vacio\");\n        \n        aulas.push(DatosAula(aulas.length, _nombre));\n\n        return aulas.length - 1;\n    }\n    \n \n    /**\n     * Las personas pueden registrar su asistencia a un aula con el metodo guardarEntrada.\n     * \n     * Impedir que se pueda meter un nombre vacio.\n     *\n     * @param _nombre El nombre del aula. \n     * @param _ent Hora de entrada al aula.\n     * @param _fecha Fecha de entrada al aula.\n     * @param _puesto Puesto en el aula.\n     */\n    function guardarEntrada(string memory _nombre, string memory _ent, string memory _fecha, string memory _puesto, uint _turno) public {\n        \n\t\n        bytes memory a = bytes(_nombre);\n        require(a.length != 0, \"El nombre no puede ser vacio\");\n\n\tbytes memory b = bytes(_ent);\n\trequire(b.length != 0, \"La hora de entrada no puede ser vacio\");\n\n\tbytes memory c = bytes(_fecha);\n\trequire(c.length != 0, \"La fecha no puede ser vacio\");\n\n\tbytes memory d = bytes(_puesto);\n        require(d.length != 0, \"El puesto no puede ser vacio\");\n\n\tdatosAula[_fecha][_nombre][_turno][msg.sender].dir = msg.sender;\n\tdatosAula[_fecha][_nombre][_turno][msg.sender].fecha = _fecha;\n\tdatosAula[_fecha][_nombre][_turno][msg.sender].ent = _ent; \n\tdatosAula[_fecha][_nombre][_turno][msg.sender].puesto = _puesto;\n \t\n\tif (alertasUsuario[msg.sender].estado==0) {\n   \tdatosAula[_fecha][_nombre][_turno][msg.sender].estado = \"Inicial\";\n\t} else if (alertasUsuario[msg.sender].estado==1) {\n   \tdatosAula[_fecha][_nombre][_turno][msg.sender].estado = \"Sospechoso\";\n\t} else if (alertasUsuario[msg.sender].estado==2) {\n   \tdatosAula[_fecha][_nombre][_turno][msg.sender].estado = \"Positivo\";\n\t} else {\n   \tdatosAula[_fecha][_nombre][_turno][msg.sender].estado = \"Negativo\";\n\t}\n\n        personas[_fecha][_nombre][_turno].push(msg.sender);\n\tpersonasTotales[_fecha][_nombre].push(msg.sender);\n\tultimosRegistros[msg.sender].push(UltimaEntrada(_nombre,_turno,_fecha));\n\t\n\tif (turnos_existentes[_fecha][_nombre][_turno] == false){\n\t   turnos[_fecha][_nombre].push(_turno);\n\t   turnos_existentes[_fecha][_nombre][_turno] = true;\n\t}\n\n        \n    }\n    \n\n    /**\n     * Las personas pueden registrar su salida del aula con el metodo guardarSalida.\n     * \n     * Impedir que se pueda meter un nombre vacio.\n     *\n     * @param _nombre El nombre del aula. \n     * @param _sal Hora de salida al aula.\n     * @param _fecha Fecha de entrada al aula.\n     */\n    function guardarSalida(string memory _nombre, string memory _sal, string memory _fecha, uint _turno) public {\n\n\tdatosAula[_fecha][_nombre][_turno][msg.sender].sal = _sal;\n        \n    }\n\n\n\n    /**\n     * El administrador puede eliminar un aula con el metodo eliminarAula.\n     * \n     * Impedir que se pueda meter un indice vacio.\n     *\n     * @param _indice El nombre del aula. \n     */\n    function eliminarAula(uint _indice) public {\n     \n        require(_indice >= 0, \"El indice no puede ser negativo\");\n\n\n\taulas[_indice ].nombre = aulas[aulas.length - 1].nombre;\t\n\taulas[_indice ].indice = aulas[aulas.length - 1].indice;\n\taulas.pop();\n        \n    }\n\n\n\n    /**\n     * Permite al administrador obtener los datos de un aula para que sean visualizados.\n     * \n     */\n    function guardarEntradasAula(string memory _nombre, string memory _fecha) public view returns(Entrada[] memory) {\n\n\tuint cont = 0;\n\tuint iterador = 0;\n\n\tuint num_turnos = turnos[_fecha][_nombre].length;\n\t\n\tfor(uint j = 0; j < num_turnos ; j++){\n\n\tcont = cont + personas[_fecha][_nombre][turnos[_fecha][_nombre][j]].length;\n\n\t}\t\n\n\n\tif(num_turnos > 0){\n\n\tEntrada[] memory entradas = new Entrada[](cont);\n\n\tfor(uint j = 0; j < num_turnos ; j++){\n\n\taddress[] memory _dir = personas[_fecha][_nombre][turnos[_fecha][_nombre][j]];\t\n\n\tfor(uint i = iterador; i < _dir.length + iterador ; i++){\n\n\tentradas[i].dir = datosAula[_fecha][_nombre][turnos[_fecha][_nombre][j]][_dir[i]].dir;\n\tentradas[i].fecha = datosAula[_fecha][_nombre][turnos[_fecha][_nombre][j]][_dir[i]].fecha;\n\tentradas[i].ent = datosAula[_fecha][_nombre][turnos[_fecha][_nombre][j]][_dir[i]].ent;\n\tentradas[i].sal = datosAula[_fecha][_nombre][turnos[_fecha][_nombre][j]][_dir[i]].sal;\n\tentradas[i].puesto = datosAula[_fecha][_nombre][turnos[_fecha][_nombre][j]][_dir[i]].puesto;\n\tentradas[i].estado = datosAula[_fecha][_nombre][turnos[_fecha][_nombre][j]][_dir[i]].estado;\n\tentradas[i].info = datosAula[_fecha][_nombre][turnos[_fecha][_nombre][j]][_dir[i]].info;\n\t\n\t}\n\titerador = iterador + _dir.length;\n\t}\n\titerador = 0;\n\tcont = 0;\n\tnum_turnos = 0;\n\treturn entradas;\n\n\t}\n\telse{\n\t\n\tEntrada[] memory entradas_dos = new Entrada[](1);\n\tentradas_dos[0].dir = address(0x3b3ddfb4C96a81B305294f445a7d7Cb185b0FBb2);\n  \tentradas_dos[0].fecha = \"DISPONIBLES\";\n\tentradas_dos[0].ent = \"EN LA FECHA\";\n\tentradas_dos[0].sal = \"Y\";\n\tentradas_dos[0].puesto = \"ESTA\";\n\tentradas_dos[0].estado = \"AULA\";\n\n\treturn entradas_dos;\n\n\t}\t\n\n    }\n\n\n    /**\n     * Permite cambiar el estado de una persona a Negativo.\n     * \n     */\n    function estadoNegativo(string memory fechaNeg) public {\n\n\tuint longit = 0;\n\n\tif(ultimosRegistros[msg.sender].length > 0){\n\tlongit = ultimosRegistros[msg.sender].length - 1;\n\t}\n\n\tstring memory _nombre = ultimosRegistros[msg.sender][longit].aula ;\n\tstring memory _fecha  = ultimosRegistros[msg.sender][longit].fecha ;\n\tuint _turno  = ultimosRegistros[msg.sender][longit].turno ;\n\tuint i = 0;\n\n\tbytes memory a = bytes(_nombre);\n\tbytes memory b = bytes(_fecha);\n\n\n\tdatosAula[_fecha][_nombre][_turno][msg.sender].estado = \"Negativo\";\n\tdatosAula[_fecha][_nombre][_turno][msg.sender].info = string(abi.encodePacked(\"Desde el \", fechaNeg));\n\n\talertasEscuela.push(UltimaEntrada(_nombre, _turno, _fecha));\n\n\tbytes memory f = bytes(alertasEscuela[i].aula);\n\tbytes memory g = bytes(alertasEscuela[i].fecha);\t\n\n\twhile((i < alertasEscuela.length) && ((keccak256(f) != keccak256(a))||(alertasEscuela[i].turno != _turno)||(keccak256(g) != keccak256(b)))){\n\n\ti++;\n        f = bytes(alertasEscuela[i].aula);\n\tg = bytes(alertasEscuela[i].fecha);\n\t}\n\n\tfor(uint x = i; x < alertasEscuela.length - 1 ; x++){\n\talertasEscuela[x].aula = alertasEscuela[x+1].aula;\n\talertasEscuela[x].turno = alertasEscuela[x+1].turno;\n\talertasEscuela[x].fecha = alertasEscuela[x+1].fecha;\t\n\t}\n\n\talertasEscuela.pop();\n\ti = 0;\n\talertasUsuario[msg.sender].estado = 3;\n\talertasUsuario[msg.sender].aula = \"\";\n\talertasUsuario[msg.sender].fecha = \"\";\n\n    }\n\n\n\n    /**\n     * Permite cambiar el estado de una persona a Positivo, y pone en Sospechoso el de las.\n     * personas que han compartido aula en la misma fecha, aula y turno que dicha persona.\n     */\n    function estadoPositivo(string memory fechaPos) public {\n\n\n\tuint longit = 0;\n\n\tif(ultimosRegistros[msg.sender].length > 0){\n\tlongit = ultimosRegistros[msg.sender].length - 1;\n\t}\n\n\tstring memory _nombre = ultimosRegistros[msg.sender][longit].aula ;\n\tstring memory _fecha  = ultimosRegistros[msg.sender][longit].fecha ;\n\tuint _turno  = ultimosRegistros[msg.sender][longit].turno ;\n\n\n\tbytes memory c = bytes(\"Positivo\");    \n\n\tfor(uint i = 0; i < personas[_fecha][_nombre][_turno].length; i++){\n\n        bytes memory d = bytes(datosAula[_fecha][_nombre][_turno][personas[_fecha][_nombre][_turno][i]].estado);\n\n\tif((keccak256(d) != keccak256(c))){\n\tdatosAula[_fecha][_nombre][_turno][personas[_fecha][_nombre][_turno][i]].estado = \"Sospechoso\";\n\tdatosAula[_fecha][_nombre][_turno][personas[_fecha][_nombre][_turno][i]].info = string(abi.encodePacked(\"Desde el \", fechaPos));\n\t\n    \talertasUsuario[personas[_fecha][_nombre][_turno][i]].estado = 1;\n\talertasUsuario[personas[_fecha][_nombre][_turno][i]].aula = _nombre;\n\talertasUsuario[personas[_fecha][_nombre][_turno][i]].fecha = _fecha;\n\n\t}\n\t\n\t}\n\t\n\n\tdatosAula[_fecha][_nombre][_turno][msg.sender].estado = \"Positivo\";\n\tdatosAula[_fecha][_nombre][_turno][msg.sender].info = string(abi.encodePacked(\"Desde el \", fechaPos));\n        alertasEscuela.push(UltimaEntrada(_nombre, _turno, _fecha));\n\talertasUsuario[msg.sender].estado = 2;\n\talertasUsuario[msg.sender].aula = _nombre;\n\talertasUsuario[msg.sender].fecha = _fecha;\n\n    }\n    \n    \n    /**\n     * No se permite la recepcion de dinero.\n     */\n    receive() external payable {\n        revert(\"No se permite la recepcion de dinero.\");\n    }\n}\n",
  "sourcePath": "C:/Users/valle/Desktop/AulasCovid/contracts/Escuela.sol",
  "compiler": {
    "name": "solc",
    "version": "0.7.4+commit.3f05b770.Emscripten.clang"
  },
  "schemaVersion": "3.3.4",
  "updatedAt": "2021-06-12T16:49:58.317Z",
  "devdoc": {
    "kind": "dev",
    "methods": {
      "alertasLength()": {
        "returns": {
          "_0": "El numero de alertas existentes."
        }
      },
      "aulasLength()": {
        "returns": {
          "_0": "El numero de aulas creadas."
        }
      },
      "constructor": {
        "params": {
          "_nombre": "Nombre de la escuela."
        }
      },
      "crearAula(string)": {
        "params": {
          "_nombre": "El nombre del aula. "
        },
        "returns": {
          "_0": "La posicion en el array aulas,"
        }
      },
      "eliminarAula(uint256)": {
        "params": {
          "_indice": "El nombre del aula. "
        }
      },
      "guardarEntrada(string,string,string,string,uint256)": {
        "params": {
          "_ent": "Hora de entrada al aula.",
          "_fecha": "Fecha de entrada al aula.",
          "_nombre": "El nombre del aula. ",
          "_puesto": "Puesto en el aula."
        }
      },
      "guardarSalida(string,string,string,uint256)": {
        "params": {
          "_fecha": "Fecha de entrada al aula.",
          "_nombre": "El nombre del aula. ",
          "_sal": "Hora de salida al aula."
        }
      },
      "ultimosRegistrosLength(address)": {
        "returns": {
          "_0": "El numero de ultimosRegistros existentes."
        }
      }
    },
    "version": 1
  },
  "userdoc": {
    "kind": "user",
    "methods": {
      "administrador()": {
        "notice": "address del administrador que ha desplegado el contrato. El contrato lo despliega el admin."
      },
      "alertas(address)": {
        "notice": "La alerta (si la hay) de un usuario."
      },
      "alertasEscuela(uint256)": {
        "notice": "Alertas de la escuela."
      },
      "alertasLength()": {
        "notice": "El numero de alertas existentes."
      },
      "alertasUsuario(address)": {
        "notice": "Alertas para un usuario."
      },
      "aulaPulsada(uint256)": {
        "notice": "El aula del que se desea ver el historial."
      },
      "aulas(uint256)": {
        "notice": "Aulas de la escuela."
      },
      "aulasLength()": {
        "notice": "El numero de aulas creadas."
      },
      "constructor": {
        "notice": "Constructor. "
      },
      "crearAula(string)": {
        "notice": "Crear un aula.  Las aulas se meteran en el array aulas, y nos referiremos a ellas por su posicion en el array. "
      },
      "dirPersonas(string,string,uint256)": {
        "notice": "Permite obtener un address del array de personas. "
      },
      "eliminarAula(uint256)": {
        "notice": "El administrador puede eliminar un aula con el metodo eliminarAula.  Impedir que se pueda meter un indice vacio."
      },
      "escuela()": {
        "notice": "Nombre de la escuela"
      },
      "estadoNegativo(string)": {
        "notice": "Permite cambiar el estado de una persona a Negativo. "
      },
      "estadoPositivo(string)": {
        "notice": "Permite cambiar el estado de una persona a Positivo, y pone en Sospechoso el de las. personas que han compartido aula en la misma fecha, aula y turno que dicha persona."
      },
      "guardarEntrada(string,string,string,string,uint256)": {
        "notice": "Las personas pueden registrar su asistencia a un aula con el metodo guardarEntrada.  Impedir que se pueda meter un nombre vacio."
      },
      "guardarEntradasAula(string,string)": {
        "notice": "Permite al administrador obtener los datos de un aula para que sean visualizados. "
      },
      "guardarSalida(string,string,string,uint256)": {
        "notice": "Las personas pueden registrar su salida del aula con el metodo guardarSalida.  Impedir que se pueda meter un nombre vacio."
      },
      "personas(string,string,uint256,uint256)": {
        "notice": "Direcciones de las personas que han asistido a algun aula en alguna de las fechas y en algun turno."
      },
      "personasLength(string,string)": {
        "notice": "Permite obtener la longitud del array de personasTotales. "
      },
      "personasTotales(string,string,uint256)": {
        "notice": "Direcciones de las personas que han asistido a algun aula en alguna de las fechas."
      },
      "reiniciarAlerta()": {
        "notice": "Eliminar la alerta de un usuario"
      },
      "turnos(string,string,uint256)": {
        "notice": "Turnos de la escuela."
      },
      "turnos_existentes(string,string,uint256)": {
        "notice": "Mapping para evitar duplicados de turnos."
      },
      "ultimosRegistros(address,uint256)": {
        "notice": "Ultimas entradas de cada persona."
      },
      "ultimosRegistrosLength(address)": {
        "notice": "El numero de ultimosRegistros existentes."
      }
    },
    "notice": "El contrato Escuela representa las aulas de la escuela. ",
    "version": 1
  }
}